{
  "_format": "hh-sol-artifact-1",
  "contractName": "AccessControl",
  "sourceName": "contracts/AccessControl.sol",
  "abi": [
    {
      "inputs": [],
      "stateMutability": "nonpayable",
      "type": "constructor"
    },
    {
      "anonymous": false,
      "inputs": [
        {
          "indexed": true,
          "internalType": "address",
          "name": "previousOwner",
          "type": "address"
        },
        {
          "indexed": true,
          "internalType": "address",
          "name": "newOwner",
          "type": "address"
        }
      ],
      "name": "OwnershipTransferred",
      "type": "event"
    },
    {
      "anonymous": false,
      "inputs": [
        {
          "indexed": true,
          "internalType": "bytes32",
          "name": "role",
          "type": "bytes32"
        },
        {
          "indexed": true,
          "internalType": "address",
          "name": "account",
          "type": "address"
        },
        {
          "indexed": true,
          "internalType": "address",
          "name": "sender",
          "type": "address"
        }
      ],
      "name": "RoleGranted",
      "type": "event"
    },
    {
      "anonymous": false,
      "inputs": [
        {
          "indexed": true,
          "internalType": "bytes32",
          "name": "role",
          "type": "bytes32"
        },
        {
          "indexed": true,
          "internalType": "address",
          "name": "account",
          "type": "address"
        },
        {
          "indexed": true,
          "internalType": "address",
          "name": "sender",
          "type": "address"
        }
      ],
      "name": "RoleRevoked",
      "type": "event"
    },
    {
      "inputs": [],
      "name": "ADMIN_ROLE",
      "outputs": [
        {
          "internalType": "bytes32",
          "name": "",
          "type": "bytes32"
        }
      ],
      "stateMutability": "view",
      "type": "function"
    },
    {
      "inputs": [],
      "name": "MANUFACTURER_ROLE",
      "outputs": [
        {
          "internalType": "bytes32",
          "name": "",
          "type": "bytes32"
        }
      ],
      "stateMutability": "view",
      "type": "function"
    },
    {
      "inputs": [],
      "name": "RECYCLER_ROLE",
      "outputs": [
        {
          "internalType": "bytes32",
          "name": "",
          "type": "bytes32"
        }
      ],
      "stateMutability": "view",
      "type": "function"
    },
    {
      "inputs": [],
      "name": "VERIFIED_SERVICE_CENTER_ROLE",
      "outputs": [
        {
          "internalType": "bytes32",
          "name": "",
          "type": "bytes32"
        }
      ],
      "stateMutability": "view",
      "type": "function"
    },
    {
      "inputs": [
        {
          "internalType": "bytes32",
          "name": "role",
          "type": "bytes32"
        },
        {
          "internalType": "address",
          "name": "account",
          "type": "address"
        }
      ],
      "name": "grantRole",
      "outputs": [],
      "stateMutability": "nonpayable",
      "type": "function"
    },
    {
      "inputs": [
        {
          "internalType": "bytes32",
          "name": "role",
          "type": "bytes32"
        },
        {
          "internalType": "address",
          "name": "account",
          "type": "address"
        }
      ],
      "name": "hasRole",
      "outputs": [
        {
          "internalType": "bool",
          "name": "",
          "type": "bool"
        }
      ],
      "stateMutability": "view",
      "type": "function"
    },
    {
      "inputs": [],
      "name": "owner",
      "outputs": [
        {
          "internalType": "address",
          "name": "",
          "type": "address"
        }
      ],
      "stateMutability": "view",
      "type": "function"
    },
    {
      "inputs": [
        {
          "internalType": "bytes32",
          "name": "role",
          "type": "bytes32"
        },
        {
          "internalType": "address",
          "name": "account",
          "type": "address"
        }
      ],
      "name": "revokeRole",
      "outputs": [],
      "stateMutability": "nonpayable",
      "type": "function"
    },
    {
      "inputs": [
        {
          "internalType": "address",
          "name": "newOwner",
          "type": "address"
        }
      ],
      "name": "transferOwnership",
      "outputs": [],
      "stateMutability": "nonpayable",
      "type": "function"
    }
  ],
  "bytecode": "0x608060405234801561001057600080fd5b50600180546001600160a01b03191633908117825560009081527f7d7ffb7a348e1c6a02869081a26547b49160dd3df72d1d75a570eb9b698292ec60205260409020805460ff191690911790556105e48061006c6000396000f3fe608060405234801561001057600080fd5b50600436106100935760003560e01c806391d148541161006657806391d1485414610127578063965288b01461014a578063bf31377814610171578063d547741f14610198578063f2fde38b146101ab57600080fd5b80630bffcaf5146100985780632f2ff15d146100d257806375b238fc146100e75780638da5cb5b146100fc575b600080fd5b6100bf7f8d6164e59cd3d7769f046029450f52615b1942102ee92425070b9faf595f111e81565b6040519081526020015b60405180910390f35b6100e56100e03660046104f0565b6101be565b005b6100bf60008051602061058f83398151915281565b60015461010f906001600160a01b031681565b6040516001600160a01b0390911681526020016100c9565b61013a6101353660046104f0565b6102c0565b60405190151581526020016100c9565b6100bf7feefb95e842a3287179d933b4460be539a1d5af11aa8b325bb45c5c8dc92de4ed81565b6100bf7f11d2c681bc9c10ed61f9a422c0dbaaddc4054ce58ec726aca73e7e4d31bcd15481565b6100e56101a63660046104f0565b6102e9565b6100e56101b936600461051c565b6103e0565b6101d660008051602061058f833981519152336102c0565b6101fb5760405162461bcd60e51b81526004016101f29061053e565b60405180910390fd5b61020582826102c0565b156102675760405162461bcd60e51b815260206004820152602c60248201527f416363657373436f6e74726f6c3a204163636f756e7420616c7265616479206860448201526b6173207468697320726f6c6560a01b60648201526084016101f2565b6000828152602081815260408083206001600160a01b0385168085529252808320805460ff1916600117905551339285917f2f8788117e7eff1d82e926ec794901d17c78024a50270940304540a733656f0d9190a45050565b6000918252602082815260408084206001600160a01b0393909316845291905290205460ff1690565b61030160008051602061058f833981519152336102c0565b61031d5760405162461bcd60e51b81526004016101f29061053e565b61032782826102c0565b61038a5760405162461bcd60e51b815260206004820152602e60248201527f416363657373436f6e74726f6c3a204163636f756e7420646f6573206e6f742060448201526d68617665207468697320726f6c6560901b60648201526084016101f2565b6000828152602081815260408083206001600160a01b0385168085529252808320805460ff1916905551339285917ff6391f5c32d9c69d2a47ea670b442974b53935d1edc7fd64eb21e047a839171b9190a45050565b6103f860008051602061058f833981519152336102c0565b6104145760405162461bcd60e51b81526004016101f29061053e565b6001600160a01b0381166104825760405162461bcd60e51b815260206004820152602f60248201527f416363657373436f6e74726f6c3a204e6577206f776e65722063616e6e6f742060448201526e6265207a65726f206164647265737360881b60648201526084016101f2565b600180546001600160a01b038381166001600160a01b0319831681179093556040519116919082907f8be0079c531659141344cd1fd0a4f28419497f9722a3daafe3b4186f6b6457e090600090a35050565b80356001600160a01b03811681146104eb57600080fd5b919050565b6000806040838503121561050357600080fd5b82359150610513602084016104d4565b90509250929050565b60006020828403121561052e57600080fd5b610537826104d4565b9392505050565b60208082526030908201527f416363657373436f6e74726f6c3a204f6e6c792061646d696e2063616e20636160408201526f3636103a3434b990333ab731ba34b7b760811b60608201526080019056fea49807205ce4d355092ef5a8a18f56e8913cf4a201fbe287825b095693c21775a26469706673582212203dad40f0e22dcf6611df561bec7aa2545c18c8913ee62180478a28efd418493f64736f6c63430008140033",
  "linkReferences": {},
  "deployedLinkReferences": {}
}