{
  "_format": "hh-sol-artifact-1",
  "contractName": "GreenPoints",
  "sourceName": "contracts/GreenPoints.sol",
  "abi": [
    {
      "inputs": [],
      "stateMutability": "nonpayable",
      "type": "constructor"
    },
    {
      "anonymous": false,
      "inputs": [
        {
          "indexed": true,
          "internalType": "address",
          "name": "previousOwner",
          "type": "address"
        },
        {
          "indexed": true,
          "internalType": "address",
          "name": "newOwner",
          "type": "address"
        }
      ],
      "name": "OwnershipTransferred",
      "type": "event"
    },
    {
      "anonymous": false,
      "inputs": [
        {
          "indexed": true,
          "internalType": "uint256",
          "name": "recordId",
          "type": "uint256"
        },
        {
          "indexed": true,
          "internalType": "address",
          "name": "user",
          "type": "address"
        },
        {
          "indexed": false,
          "internalType": "uint256",
          "name": "amount",
          "type": "uint256"
        },
        {
          "indexed": false,
          "internalType": "enum GreenPoints.RewardReason",
          "name": "reason",
          "type": "uint8"
        },
        {
          "indexed": false,
          "internalType": "uint256",
          "name": "timestamp",
          "type": "uint256"
        }
      ],
      "name": "PointsIssued",
      "type": "event"
    },
    {
      "anonymous": false,
      "inputs": [
        {
          "indexed": true,
          "internalType": "uint256",
          "name": "recordId",
          "type": "uint256"
        },
        {
          "indexed": true,
          "internalType": "address",
          "name": "user",
          "type": "address"
        },
        {
          "indexed": false,
          "internalType": "uint256",
          "name": "amount",
          "type": "uint256"
        },
        {
          "indexed": false,
          "internalType": "string",
          "name": "redemptionType",
          "type": "string"
        },
        {
          "indexed": false,
          "internalType": "uint256",
          "name": "timestamp",
          "type": "uint256"
        }
      ],
      "name": "PointsRedeemed",
      "type": "event"
    },
    {
      "anonymous": false,
      "inputs": [
        {
          "indexed": true,
          "internalType": "bytes32",
          "name": "role",
          "type": "bytes32"
        },
        {
          "indexed": true,
          "internalType": "address",
          "name": "account",
          "type": "address"
        },
        {
          "indexed": true,
          "internalType": "address",
          "name": "sender",
          "type": "address"
        }
      ],
      "name": "RoleGranted",
      "type": "event"
    },
    {
      "anonymous": false,
      "inputs": [
        {
          "indexed": true,
          "internalType": "bytes32",
          "name": "role",
          "type": "bytes32"
        },
        {
          "indexed": true,
          "internalType": "address",
          "name": "account",
          "type": "address"
        },
        {
          "indexed": true,
          "internalType": "address",
          "name": "sender",
          "type": "address"
        }
      ],
      "name": "RoleRevoked",
      "type": "event"
    },
    {
      "anonymous": false,
      "inputs": [
        {
          "indexed": true,
          "internalType": "address",
          "name": "from",
          "type": "address"
        },
        {
          "indexed": true,
          "internalType": "address",
          "name": "to",
          "type": "address"
        },
        {
          "indexed": false,
          "internalType": "uint256",
          "name": "amount",
          "type": "uint256"
        }
      ],
      "name": "Transfer",
      "type": "event"
    },
    {
      "inputs": [],
      "name": "ADMIN_ROLE",
      "outputs": [
        {
          "internalType": "bytes32",
          "name": "",
          "type": "bytes32"
        }
      ],
      "stateMutability": "view",
      "type": "function"
    },
    {
      "inputs": [],
      "name": "MANUFACTURER_ROLE",
      "outputs": [
        {
          "internalType": "bytes32",
          "name": "",
          "type": "bytes32"
        }
      ],
      "stateMutability": "view",
      "type": "function"
    },
    {
      "inputs": [],
      "name": "RECYCLER_ROLE",
      "outputs": [
        {
          "internalType": "bytes32",
          "name": "",
          "type": "bytes32"
        }
      ],
      "stateMutability": "view",
      "type": "function"
    },
    {
      "inputs": [],
      "name": "VERIFIED_SERVICE_CENTER_ROLE",
      "outputs": [
        {
          "internalType": "bytes32",
          "name": "",
          "type": "bytes32"
        }
      ],
      "stateMutability": "view",
      "type": "function"
    },
    {
      "inputs": [
        {
          "internalType": "uint256",
          "name": "amount",
          "type": "uint256"
        }
      ],
      "name": "burn",
      "outputs": [],
      "stateMutability": "nonpayable",
      "type": "function"
    },
    {
      "inputs": [
        {
          "internalType": "address",
          "name": "userAddress",
          "type": "address"
        }
      ],
      "name": "getBalance",
      "outputs": [
        {
          "internalType": "uint256",
          "name": "balance",
          "type": "uint256"
        }
      ],
      "stateMutability": "view",
      "type": "function"
    },
    {
      "inputs": [
        {
          "internalType": "uint256",
          "name": "recordId",
          "type": "uint256"
        }
      ],
      "name": "getIssuanceDetails",
      "outputs": [
        {
          "components": [
            {
              "internalType": "uint256",
              "name": "recordId",
              "type": "uint256"
            },
            {
              "internalType": "address",
              "name": "user",
              "type": "address"
            },
            {
              "internalType": "uint256",
              "name": "amount",
              "type": "uint256"
            },
            {
              "internalType": "enum GreenPoints.RewardReason",
              "name": "reason",
              "type": "uint8"
            },
            {
              "internalType": "string",
              "name": "description",
              "type": "string"
            },
            {
              "internalType": "uint256",
              "name": "timestamp",
              "type": "uint256"
            }
          ],
          "internalType": "struct GreenPoints.IssuanceRecord",
          "name": "record",
          "type": "tuple"
        }
      ],
      "stateMutability": "view",
      "type": "function"
    },
    {
      "inputs": [
        {
          "internalType": "uint256",
          "name": "recordId",
          "type": "uint256"
        }
      ],
      "name": "getRedemptionDetails",
      "outputs": [
        {
          "components": [
            {
              "internalType": "uint256",
              "name": "recordId",
              "type": "uint256"
            },
            {
              "internalType": "address",
              "name": "user",
              "type": "address"
            },
            {
              "internalType": "uint256",
              "name": "amount",
              "type": "uint256"
            },
            {
              "internalType": "string",
              "name": "redemptionType",
              "type": "string"
            },
            {
              "internalType": "uint256",
              "name": "timestamp",
              "type": "uint256"
            }
          ],
          "internalType": "struct GreenPoints.RedemptionRecord",
          "name": "record",
          "type": "tuple"
        }
      ],
      "stateMutability": "view",
      "type": "function"
    },
    {
      "inputs": [
        {
          "internalType": "address",
          "name": "userAddress",
          "type": "address"
        }
      ],
      "name": "getUserIssuances",
      "outputs": [
        {
          "internalType": "uint256[]",
          "name": "records",
          "type": "uint256[]"
        }
      ],
      "stateMutability": "view",
      "type": "function"
    },
    {
      "inputs": [
        {
          "internalType": "address",
          "name": "userAddress",
          "type": "address"
        }
      ],
      "name": "getUserRedemptions",
      "outputs": [
        {
          "internalType": "uint256[]",
          "name": "records",
          "type": "uint256[]"
        }
      ],
      "stateMutability": "view",
      "type": "function"
    },
    {
      "inputs": [
        {
          "internalType": "bytes32",
          "name": "role",
          "type": "bytes32"
        },
        {
          "internalType": "address",
          "name": "account",
          "type": "address"
        }
      ],
      "name": "grantRole",
      "outputs": [],
      "stateMutability": "nonpayable",
      "type": "function"
    },
    {
      "inputs": [
        {
          "internalType": "bytes32",
          "name": "role",
          "type": "bytes32"
        },
        {
          "internalType": "address",
          "name": "account",
          "type": "address"
        }
      ],
      "name": "hasRole",
      "outputs": [
        {
          "internalType": "bool",
          "name": "",
          "type": "bool"
        }
      ],
      "stateMutability": "view",
      "type": "function"
    },
    {
      "inputs": [
        {
          "internalType": "uint256",
          "name": "",
          "type": "uint256"
        }
      ],
      "name": "issuanceRecords",
      "outputs": [
        {
          "internalType": "uint256",
          "name": "recordId",
          "type": "uint256"
        },
        {
          "internalType": "address",
          "name": "user",
          "type": "address"
        },
        {
          "internalType": "uint256",
          "name": "amount",
          "type": "uint256"
        },
        {
          "internalType": "enum GreenPoints.RewardReason",
          "name": "reason",
          "type": "uint8"
        },
        {
          "internalType": "string",
          "name": "description",
          "type": "string"
        },
        {
          "internalType": "uint256",
          "name": "timestamp",
          "type": "uint256"
        }
      ],
      "stateMutability": "view",
      "type": "function"
    },
    {
      "inputs": [
        {
          "internalType": "address",
          "name": "userAddress",
          "type": "address"
        },
        {
          "internalType": "uint256",
          "name": "amount",
          "type": "uint256"
        },
        {
          "internalType": "enum GreenPoints.RewardReason",
          "name": "reason",
          "type": "uint8"
        },
        {
          "internalType": "string",
          "name": "description",
          "type": "string"
        }
      ],
      "name": "issuePoints",
      "outputs": [
        {
          "internalType": "uint256",
          "name": "",
          "type": "uint256"
        }
      ],
      "stateMutability": "nonpayable",
      "type": "function"
    },
    {
      "inputs": [],
      "name": "owner",
      "outputs": [
        {
          "internalType": "address",
          "name": "",
          "type": "address"
        }
      ],
      "stateMutability": "view",
      "type": "function"
    },
    {
      "inputs": [
        {
          "internalType": "uint256",
          "name": "amount",
          "type": "uint256"
        },
        {
          "internalType": "string",
          "name": "redemptionType",
          "type": "string"
        }
      ],
      "name": "redeemPoints",
      "outputs": [],
      "stateMutability": "nonpayable",
      "type": "function"
    },
    {
      "inputs": [
        {
          "internalType": "uint256",
          "name": "",
          "type": "uint256"
        }
      ],
      "name": "redemptionRecords",
      "outputs": [
        {
          "internalType": "uint256",
          "name": "recordId",
          "type": "uint256"
        },
        {
          "internalType": "address",
          "name": "user",
          "type": "address"
        },
        {
          "internalType": "uint256",
          "name": "amount",
          "type": "uint256"
        },
        {
          "internalType": "string",
          "name": "redemptionType",
          "type": "string"
        },
        {
          "internalType": "uint256",
          "name": "timestamp",
          "type": "uint256"
        }
      ],
      "stateMutability": "view",
      "type": "function"
    },
    {
      "inputs": [
        {
          "internalType": "bytes32",
          "name": "role",
          "type": "bytes32"
        },
        {
          "internalType": "address",
          "name": "account",
          "type": "address"
        }
      ],
      "name": "revokeRole",
      "outputs": [],
      "stateMutability": "nonpayable",
      "type": "function"
    },
    {
      "inputs": [],
      "name": "totalSupply",
      "outputs": [
        {
          "internalType": "uint256",
          "name": "",
          "type": "uint256"
        }
      ],
      "stateMutability": "view",
      "type": "function"
    },
    {
      "inputs": [
        {
          "internalType": "address",
          "name": "to",
          "type": "address"
        },
        {
          "internalType": "uint256",
          "name": "amount",
          "type": "uint256"
        }
      ],
      "name": "transfer",
      "outputs": [],
      "stateMutability": "nonpayable",
      "type": "function"
    },
    {
      "inputs": [
        {
          "internalType": "address",
          "name": "newOwner",
          "type": "address"
        }
      ],
      "name": "transferOwnership",
      "outputs": [],
      "stateMutability": "nonpayable",
      "type": "function"
    }
  ],
  "bytecode": "0x608060405234801561001057600080fd5b50600180546001600160a01b03191633908117825560009081527f7d7ffb7a348e1c6a02869081a26547b49160dd3df72d1d75a570eb9b698292ec60205260408120805460ff1916831790556003556005819055600755611ab6806100766000396000f3fe608060405234801561001057600080fd5b50600436106101375760003560e01c80638da5cb5b116100b8578063bf3137781161007c578063bf313778146102ee578063c4e71eaf14610315578063d547741f14610328578063f2fde38b1461033b578063f819a9a41461034e578063f8b2cb4f1461037257600080fd5b80638da5cb5b1461024657806391d1485414610271578063965288b014610294578063a9059cbb146102bb578063aae2d362146102ce57600080fd5b8063517f9c07116100ff578063517f9c07146101c6578063698a10ea146101eb57806375b238fc146101fe57806379e4d50b146102135780637c1867251461023357600080fd5b80630bffcaf51461013c57806318160ddd146101765780632f2ff15d1461017e5780634174f1b21461019357806342966c68146101b3575b600080fd5b6101637f8d6164e59cd3d7769f046029450f52615b1942102ee92425070b9faf595f111e81565b6040519081526020015b60405180910390f35b600354610163565b61019161018c36600461135b565b61039b565b005b6101a66101a1366004611387565b61049d565b60405161016d919061141e565b6101916101c1366004611387565b610613565b6101d96101d4366004611387565b610703565b60405161016d96959493929190611489565b6101636101f936600461157b565b6107d2565b610163600080516020611a6183398151915281565b6102266102213660046115e9565b610b1a565b60405161016d919061160b565b61019161024136600461164f565b610b86565b600154610259906001600160a01b031681565b6040516001600160a01b03909116815260200161016d565b61028461027f36600461135b565b610d7b565b604051901515815260200161016d565b6101637feefb95e842a3287179d933b4460be539a1d5af11aa8b325bb45c5c8dc92de4ed81565b6101916102c9366004611696565b610da6565b6102e16102dc366004611387565b610ed5565b60405161016d91906116c0565b6101637f11d2c681bc9c10ed61f9a422c0dbaaddc4054ce58ec726aca73e7e4d31bcd15481565b6102266103233660046115e9565b611027565b61019161033636600461135b565b611091565b6101916103493660046115e9565b611188565b61036161035c366004611387565b61127c565b60405161016d959493929190611718565b6101636103803660046115e9565b6001600160a01b031660009081526002602052604090205490565b6103b3600080516020611a6183398151915233610d7b565b6103d85760405162461bcd60e51b81526004016103cf90611757565b60405180910390fd5b6103e28282610d7b565b156104445760405162461bcd60e51b815260206004820152602c60248201527f416363657373436f6e74726f6c3a204163636f756e7420616c7265616479206860448201526b6173207468697320726f6c6560a01b60648201526084016103cf565b6000828152602081815260408083206001600160a01b0385168085529252808320805460ff1916600117905551339285917f2f8788117e7eff1d82e926ec794901d17c78024a50270940304540a733656f0d9190a45050565b6040805160c0810182526000808252602082018190529181018290526060808201839052608082015260a081019190915260008281526004602052604081205490036104fb5760405162461bcd60e51b81526004016103cf906117a7565b600082815260046020908152604091829020825160c0810184528154815260018201546001600160a01b0316928101929092526002810154928201929092526003820154909190606083019060ff16600781111561055b5761055b6113a0565b600781111561056c5761056c6113a0565b8152602001600482018054610580906117e9565b80601f01602080910402602001604051908101604052809291908181526020018280546105ac906117e9565b80156105f95780601f106105ce576101008083540402835291602001916105f9565b820191906000526020600020905b8154815290600101906020018083116105dc57829003601f168201915b505050505081526020016005820154815250509050919050565b61062b600080516020611a6183398151915233610d7b565b6106475760405162461bcd60e51b81526004016103cf90611757565b8060035410156106b15760405162461bcd60e51b815260206004820152602f60248201527f477265656e506f696e74733a2043616e6e6f74206275726e206d6f726520746860448201526e616e20746f74616c20737570706c7960881b60648201526084016103cf565b80600360008282546106c39190611839565b909155505060405181815260009081907fddf252ad1be2c89b69c2b068fc378daa952ba7f163c4a11628f55a4df523b3ef9060200160405180910390a350565b60046020819052600091825260409091208054600182015460028301546003840154948401805493956001600160a01b0390931694919360ff90931692610749906117e9565b80601f0160208091040260200160405190810160405280929190818152602001828054610775906117e9565b80156107c25780601f10610797576101008083540402835291602001916107c2565b820191906000526020600020905b8154815290600101906020018083116107a557829003601f168201915b5050505050908060050154905086565b60006107ec600080516020611a6183398151915233610d7b565b8061081c575061081c7feefb95e842a3287179d933b4460be539a1d5af11aa8b325bb45c5c8dc92de4ed33610d7b565b8061084c575061084c7f8d6164e59cd3d7769f046029450f52615b1942102ee92425070b9faf595f111e33610d7b565b8061087c575061087c7f11d2c681bc9c10ed61f9a422c0dbaaddc4054ce58ec726aca73e7e4d31bcd15433610d7b565b6108e65760405162461bcd60e51b815260206004820152603560248201527f477265656e506f696e74733a204f6e6c7920617574686f72697a656420697373604482015274756572732063616e20697373756520706f696e747360581b60648201526084016103cf565b6001600160a01b03851661094e5760405162461bcd60e51b815260206004820152602960248201527f477265656e506f696e74733a2043616e6e6f7420697373756520746f207a65726044820152686f206164647265737360b81b60648201526084016103cf565b6000841161096e5760405162461bcd60e51b81526004016103cf9061184c565b60058054908190600061098083611899565b90915550506001600160a01b038616600090815260026020526040812080548792906109ad9084906118b2565b9250508190555084600360008282546109c691906118b2565b925050819055506040518060c00160405280828152602001876001600160a01b03168152602001868152602001856007811115610a0557610a056113a0565b81526020808201869052426040928301526000848152600482528290208351815590830151600180830180546001600160a01b0319166001600160a01b0390931692909217909155918301516002820155606083015160038201805492939192909160ff1990911690836007811115610a8057610a806113a0565b021790555060808201516004820190610a999082611914565b5060a091909101516005909101556001600160a01b0386166000818152600860209081526040808320805460018101825590845291909220018390555182907f3473295db45cfa04c62bb7b13dcd09d4d34aa02fa0b02cec22d65345fe8e2c5990610b09908990899042906119d4565b60405180910390a395945050505050565b6001600160a01b038116600090815260086020908152604091829020805483518184028101840190945280845260609392830182828015610b7a57602002820191906000526020600020905b815481526020019060010190808311610b66575b50505050509050919050565b60008211610ba65760405162461bcd60e51b81526004016103cf9061184c565b33600090815260026020526040902054821115610bd55760405162461bcd60e51b81526004016103cf906119f6565b6000815111610c3b5760405162461bcd60e51b815260206004820152602c60248201527f477265656e506f696e74733a20526564656d7074696f6e20747970652063616e60448201526b6e6f7420626520656d70747960a01b60648201526084016103cf565b600780549081906000610c4d83611899565b90915550503360009081526002602052604081208054859290610c71908490611839565b925050819055508260036000828254610c8a9190611839565b90915550506040805160a0810182528281523360208083019182528284018781526060840187815242608086015260008781526006909352949091208351815591516001830180546001600160a01b0319166001600160a01b0390921691909117905551600282015591519091906003820190610d079082611914565b5060809190910151600490910155336000818152600960209081526040808320805460018101825590845291909220018390555182907f38de8943fae92ac192896caa9062c18faf5178c1d673db7a9bbf1e7ab8e5d2b190610d6e90879087904290611a37565b60405180910390a3505050565b6000828152602081815260408083206001600160a01b038516845290915290205460ff165b92915050565b6001600160a01b038216610e115760405162461bcd60e51b815260206004820152602c60248201527f477265656e506f696e74733a2043616e6e6f74207472616e7366657220746f2060448201526b7a65726f206164647265737360a01b60648201526084016103cf565b33600090815260026020526040902054811115610e405760405162461bcd60e51b81526004016103cf906119f6565b3360009081526002602052604081208054839290610e5f908490611839565b90915550506001600160a01b03821660009081526002602052604081208054839290610e8c9084906118b2565b90915550506040518181526001600160a01b0383169033907fddf252ad1be2c89b69c2b068fc378daa952ba7f163c4a11628f55a4df523b3ef9060200160405180910390a35050565b610f106040518060a001604052806000815260200160006001600160a01b031681526020016000815260200160608152602001600081525090565b6000828152600660205260408120549003610f3d5760405162461bcd60e51b81526004016103cf906117a7565b600082815260066020908152604091829020825160a0810184528154815260018201546001600160a01b031692810192909252600281015492820192909252600382018054919291606084019190610f94906117e9565b80601f0160208091040260200160405190810160405280929190818152602001828054610fc0906117e9565b801561100d5780601f10610fe25761010080835404028352916020019161100d565b820191906000526020600020905b815481529060010190602001808311610ff057829003601f168201915b505050505081526020016004820154815250509050919050565b6001600160a01b038116600090815260096020908152604091829020805483518184028101840190945280845260609392830182828015610b7a5760200282019190600052602060002090815481526020019060010190808311610b665750505050509050919050565b6110a9600080516020611a6183398151915233610d7b565b6110c55760405162461bcd60e51b81526004016103cf90611757565b6110cf8282610d7b565b6111325760405162461bcd60e51b815260206004820152602e60248201527f416363657373436f6e74726f6c3a204163636f756e7420646f6573206e6f742060448201526d68617665207468697320726f6c6560901b60648201526084016103cf565b6000828152602081815260408083206001600160a01b0385168085529252808320805460ff1916905551339285917ff6391f5c32d9c69d2a47ea670b442974b53935d1edc7fd64eb21e047a839171b9190a45050565b6111a0600080516020611a6183398151915233610d7b565b6111bc5760405162461bcd60e51b81526004016103cf90611757565b6001600160a01b03811661122a5760405162461bcd60e51b815260206004820152602f60248201527f416363657373436f6e74726f6c3a204e6577206f776e65722063616e6e6f742060448201526e6265207a65726f206164647265737360881b60648201526084016103cf565b600180546001600160a01b038381166001600160a01b0319831681179093556040519116919082907f8be0079c531659141344cd1fd0a4f28419497f9722a3daafe3b4186f6b6457e090600090a35050565b600660205260009081526040902080546001820154600283015460038401805493946001600160a01b03909316939192916112b6906117e9565b80601f01602080910402602001604051908101604052809291908181526020018280546112e2906117e9565b801561132f5780601f106113045761010080835404028352916020019161132f565b820191906000526020600020905b81548152906001019060200180831161131257829003601f168201915b5050505050908060040154905085565b80356001600160a01b038116811461135657600080fd5b919050565b6000806040838503121561136e57600080fd5b8235915061137e6020840161133f565b90509250929050565b60006020828403121561139957600080fd5b5035919050565b634e487b7160e01b600052602160045260246000fd5b600881106113d457634e487b7160e01b600052602160045260246000fd5b9052565b6000815180845260005b818110156113fe576020818501810151868301820152016113e2565b506000602082860101526020601f19601f83011685010191505092915050565b602081528151602082015260018060a01b036020830151166040820152604082015160608201526000606083015161145960808401826113b6565b50608083015160c060a084015261147360e08401826113d8565b905060a084015160c08401528091505092915050565b8681526001600160a01b0386166020820152604081018590526114af60608201856113b6565b60c0608082015260006114c560c08301856113d8565b90508260a0830152979650505050505050565b634e487b7160e01b600052604160045260246000fd5b600082601f8301126114ff57600080fd5b813567ffffffffffffffff8082111561151a5761151a6114d8565b604051601f8301601f19908116603f01168101908282118183101715611542576115426114d8565b8160405283815286602085880101111561155b57600080fd5b836020870160208301376000602085830101528094505050505092915050565b6000806000806080858703121561159157600080fd5b61159a8561133f565b9350602085013592506040850135600881106115b557600080fd5b9150606085013567ffffffffffffffff8111156115d157600080fd5b6115dd878288016114ee565b91505092959194509250565b6000602082840312156115fb57600080fd5b6116048261133f565b9392505050565b6020808252825182820181905260009190848201906040850190845b8181101561164357835183529284019291840191600101611627565b50909695505050505050565b6000806040838503121561166257600080fd5b82359150602083013567ffffffffffffffff81111561168057600080fd5b61168c858286016114ee565b9150509250929050565b600080604083850312156116a957600080fd5b6116b28361133f565b946020939093013593505050565b602081528151602082015260018060a01b036020830151166040820152604082015160608201526000606083015160a0608084015261170260c08401826113d8565b9050608084015160a08401528091505092915050565b85815260018060a01b038516602082015283604082015260a06060820152600061174560a08301856113d8565b90508260808301529695505050505050565b60208082526030908201527f416363657373436f6e74726f6c3a204f6e6c792061646d696e2063616e20636160408201526f3636103a3434b990333ab731ba34b7b760811b606082015260800190565b60208082526022908201527f477265656e506f696e74733a205265636f726420646f6573206e6f74206578696040820152611cdd60f21b606082015260800190565b600181811c908216806117fd57607f821691505b60208210810361181d57634e487b7160e01b600052602260045260246000fd5b50919050565b634e487b7160e01b600052601160045260246000fd5b81810381811115610da057610da0611823565b6020808252602d908201527f477265656e506f696e74733a20416d6f756e74206d757374206265206772656160408201526c746572207468616e207a65726f60981b606082015260800190565b6000600182016118ab576118ab611823565b5060010190565b80820180821115610da057610da0611823565b601f82111561190f57600081815260208120601f850160051c810160208610156118ec5750805b601f850160051c820191505b8181101561190b578281556001016118f8565b5050505b505050565b815167ffffffffffffffff81111561192e5761192e6114d8565b6119428161193c84546117e9565b846118c5565b602080601f831160018114611977576000841561195f5750858301515b600019600386901b1c1916600185901b17855561190b565b600085815260208120601f198616915b828110156119a657888601518255948401946001909101908401611987565b50858210156119c45787850151600019600388901b60f8161c191681555b5050505050600190811b01905550565b838152606081016119e860208301856113b6565b826040830152949350505050565b60208082526021908201527f477265656e506f696e74733a20496e73756666696369656e742062616c616e636040820152606560f81b606082015260800190565b838152606060208201526000611a5060608301856113d8565b905082604083015294935050505056fea49807205ce4d355092ef5a8a18f56e8913cf4a201fbe287825b095693c21775a2646970667358221220172773a396512519d37cc7e694c80e1806c262386b1df1c1359f84ab0ca04d1464736f6c63430008140033",
  "linkReferences": {},
  "deployedLinkReferences": {}
}