{
  "_format": "hh-sol-artifact-1",
  "contractName": "LifecycleEvent",
  "sourceName": "contracts/LifecycleEvent.sol",
  "abi": [
    {
      "inputs": [],
      "stateMutability": "nonpayable",
      "type": "constructor"
    },
    {
      "anonymous": false,
      "inputs": [
        {
          "indexed": true,
          "internalType": "uint256",
          "name": "eventId",
          "type": "uint256"
        },
        {
          "indexed": true,
          "internalType": "address",
          "name": "verifier",
          "type": "address"
        },
        {
          "indexed": false,
          "internalType": "uint256",
          "name": "timestamp",
          "type": "uint256"
        }
      ],
      "name": "EventVerified",
      "type": "event"
    },
    {
      "anonymous": false,
      "inputs": [
        {
          "indexed": true,
          "internalType": "uint256",
          "name": "eventId",
          "type": "uint256"
        },
        {
          "indexed": true,
          "internalType": "uint256",
          "name": "tokenId",
          "type": "uint256"
        },
        {
          "indexed": false,
          "internalType": "enum LifecycleEvent.EventType",
          "name": "eventType",
          "type": "uint8"
        },
        {
          "indexed": true,
          "internalType": "address",
          "name": "actor",
          "type": "address"
        },
        {
          "indexed": false,
          "internalType": "uint256",
          "name": "timestamp",
          "type": "uint256"
        }
      ],
      "name": "LifecycleEventLogged",
      "type": "event"
    },
    {
      "anonymous": false,
      "inputs": [
        {
          "indexed": true,
          "internalType": "address",
          "name": "previousOwner",
          "type": "address"
        },
        {
          "indexed": true,
          "internalType": "address",
          "name": "newOwner",
          "type": "address"
        }
      ],
      "name": "OwnershipTransferred",
      "type": "event"
    },
    {
      "anonymous": false,
      "inputs": [
        {
          "indexed": true,
          "internalType": "bytes32",
          "name": "role",
          "type": "bytes32"
        },
        {
          "indexed": true,
          "internalType": "address",
          "name": "account",
          "type": "address"
        },
        {
          "indexed": true,
          "internalType": "address",
          "name": "sender",
          "type": "address"
        }
      ],
      "name": "RoleGranted",
      "type": "event"
    },
    {
      "anonymous": false,
      "inputs": [
        {
          "indexed": true,
          "internalType": "bytes32",
          "name": "role",
          "type": "bytes32"
        },
        {
          "indexed": true,
          "internalType": "address",
          "name": "account",
          "type": "address"
        },
        {
          "indexed": true,
          "internalType": "address",
          "name": "sender",
          "type": "address"
        }
      ],
      "name": "RoleRevoked",
      "type": "event"
    },
    {
      "inputs": [],
      "name": "ADMIN_ROLE",
      "outputs": [
        {
          "internalType": "bytes32",
          "name": "",
          "type": "bytes32"
        }
      ],
      "stateMutability": "view",
      "type": "function"
    },
    {
      "inputs": [],
      "name": "MANUFACTURER_ROLE",
      "outputs": [
        {
          "internalType": "bytes32",
          "name": "",
          "type": "bytes32"
        }
      ],
      "stateMutability": "view",
      "type": "function"
    },
    {
      "inputs": [],
      "name": "RECYCLER_ROLE",
      "outputs": [
        {
          "internalType": "bytes32",
          "name": "",
          "type": "bytes32"
        }
      ],
      "stateMutability": "view",
      "type": "function"
    },
    {
      "inputs": [],
      "name": "VERIFIED_SERVICE_CENTER_ROLE",
      "outputs": [
        {
          "internalType": "bytes32",
          "name": "",
          "type": "bytes32"
        }
      ],
      "stateMutability": "view",
      "type": "function"
    },
    {
      "inputs": [
        {
          "internalType": "uint256",
          "name": "",
          "type": "uint256"
        },
        {
          "internalType": "uint256",
          "name": "",
          "type": "uint256"
        }
      ],
      "name": "eventHistory",
      "outputs": [
        {
          "internalType": "uint256",
          "name": "eventId",
          "type": "uint256"
        },
        {
          "internalType": "uint256",
          "name": "tokenId",
          "type": "uint256"
        },
        {
          "internalType": "enum LifecycleEvent.EventType",
          "name": "eventType",
          "type": "uint8"
        },
        {
          "internalType": "string",
          "name": "description",
          "type": "string"
        },
        {
          "internalType": "address",
          "name": "actor",
          "type": "address"
        },
        {
          "internalType": "string",
          "name": "proofHash",
          "type": "string"
        },
        {
          "internalType": "uint256",
          "name": "timestamp",
          "type": "uint256"
        },
        {
          "internalType": "bool",
          "name": "verified",
          "type": "bool"
        }
      ],
      "stateMutability": "view",
      "type": "function"
    },
    {
      "inputs": [
        {
          "internalType": "uint256",
          "name": "",
          "type": "uint256"
        }
      ],
      "name": "events",
      "outputs": [
        {
          "internalType": "uint256",
          "name": "eventId",
          "type": "uint256"
        },
        {
          "internalType": "uint256",
          "name": "tokenId",
          "type": "uint256"
        },
        {
          "internalType": "enum LifecycleEvent.EventType",
          "name": "eventType",
          "type": "uint8"
        },
        {
          "internalType": "string",
          "name": "description",
          "type": "string"
        },
        {
          "internalType": "address",
          "name": "actor",
          "type": "address"
        },
        {
          "internalType": "string",
          "name": "proofHash",
          "type": "string"
        },
        {
          "internalType": "uint256",
          "name": "timestamp",
          "type": "uint256"
        },
        {
          "internalType": "bool",
          "name": "verified",
          "type": "bool"
        }
      ],
      "stateMutability": "view",
      "type": "function"
    },
    {
      "inputs": [
        {
          "internalType": "uint256",
          "name": "tokenId",
          "type": "uint256"
        }
      ],
      "name": "getEventCount",
      "outputs": [
        {
          "internalType": "uint256",
          "name": "count",
          "type": "uint256"
        }
      ],
      "stateMutability": "view",
      "type": "function"
    },
    {
      "inputs": [
        {
          "internalType": "uint256",
          "name": "eventId",
          "type": "uint256"
        }
      ],
      "name": "getEventDetails",
      "outputs": [
        {
          "components": [
            {
              "internalType": "uint256",
              "name": "eventId",
              "type": "uint256"
            },
            {
              "internalType": "uint256",
              "name": "tokenId",
              "type": "uint256"
            },
            {
              "internalType": "enum LifecycleEvent.EventType",
              "name": "eventType",
              "type": "uint8"
            },
            {
              "internalType": "string",
              "name": "description",
              "type": "string"
            },
            {
              "internalType": "address",
              "name": "actor",
              "type": "address"
            },
            {
              "internalType": "string",
              "name": "proofHash",
              "type": "string"
            },
            {
              "internalType": "uint256",
              "name": "timestamp",
              "type": "uint256"
            },
            {
              "internalType": "bool",
              "name": "verified",
              "type": "bool"
            }
          ],
          "internalType": "struct LifecycleEvent.Event",
          "name": "eventDetails",
          "type": "tuple"
        }
      ],
      "stateMutability": "view",
      "type": "function"
    },
    {
      "inputs": [
        {
          "internalType": "uint256",
          "name": "tokenId",
          "type": "uint256"
        }
      ],
      "name": "getEventHistory",
      "outputs": [
        {
          "components": [
            {
              "internalType": "uint256",
              "name": "eventId",
              "type": "uint256"
            },
            {
              "internalType": "uint256",
              "name": "tokenId",
              "type": "uint256"
            },
            {
              "internalType": "enum LifecycleEvent.EventType",
              "name": "eventType",
              "type": "uint8"
            },
            {
              "internalType": "string",
              "name": "description",
              "type": "string"
            },
            {
              "internalType": "address",
              "name": "actor",
              "type": "address"
            },
            {
              "internalType": "string",
              "name": "proofHash",
              "type": "string"
            },
            {
              "internalType": "uint256",
              "name": "timestamp",
              "type": "uint256"
            },
            {
              "internalType": "bool",
              "name": "verified",
              "type": "bool"
            }
          ],
          "internalType": "struct LifecycleEvent.Event[]",
          "name": "productEvents",
          "type": "tuple[]"
        }
      ],
      "stateMutability": "view",
      "type": "function"
    },
    {
      "inputs": [
        {
          "internalType": "uint256",
          "name": "tokenId",
          "type": "uint256"
        }
      ],
      "name": "getRecyclingEvents",
      "outputs": [
        {
          "components": [
            {
              "internalType": "uint256",
              "name": "eventId",
              "type": "uint256"
            },
            {
              "internalType": "uint256",
              "name": "tokenId",
              "type": "uint256"
            },
            {
              "internalType": "enum LifecycleEvent.EventType",
              "name": "eventType",
              "type": "uint8"
            },
            {
              "internalType": "string",
              "name": "description",
              "type": "string"
            },
            {
              "internalType": "address",
              "name": "actor",
              "type": "address"
            },
            {
              "internalType": "string",
              "name": "proofHash",
              "type": "string"
            },
            {
              "internalType": "uint256",
              "name": "timestamp",
              "type": "uint256"
            },
            {
              "internalType": "bool",
              "name": "verified",
              "type": "bool"
            }
          ],
          "internalType": "struct LifecycleEvent.Event[]",
          "name": "recycleEvents",
          "type": "tuple[]"
        }
      ],
      "stateMutability": "view",
      "type": "function"
    },
    {
      "inputs": [
        {
          "internalType": "uint256",
          "name": "tokenId",
          "type": "uint256"
        }
      ],
      "name": "getRepairEvents",
      "outputs": [
        {
          "components": [
            {
              "internalType": "uint256",
              "name": "eventId",
              "type": "uint256"
            },
            {
              "internalType": "uint256",
              "name": "tokenId",
              "type": "uint256"
            },
            {
              "internalType": "enum LifecycleEvent.EventType",
              "name": "eventType",
              "type": "uint8"
            },
            {
              "internalType": "string",
              "name": "description",
              "type": "string"
            },
            {
              "internalType": "address",
              "name": "actor",
              "type": "address"
            },
            {
              "internalType": "string",
              "name": "proofHash",
              "type": "string"
            },
            {
              "internalType": "uint256",
              "name": "timestamp",
              "type": "uint256"
            },
            {
              "internalType": "bool",
              "name": "verified",
              "type": "bool"
            }
          ],
          "internalType": "struct LifecycleEvent.Event[]",
          "name": "repairEvents",
          "type": "tuple[]"
        }
      ],
      "stateMutability": "view",
      "type": "function"
    },
    {
      "inputs": [
        {
          "internalType": "bytes32",
          "name": "role",
          "type": "bytes32"
        },
        {
          "internalType": "address",
          "name": "account",
          "type": "address"
        }
      ],
      "name": "grantRole",
      "outputs": [],
      "stateMutability": "nonpayable",
      "type": "function"
    },
    {
      "inputs": [
        {
          "internalType": "bytes32",
          "name": "role",
          "type": "bytes32"
        },
        {
          "internalType": "address",
          "name": "account",
          "type": "address"
        }
      ],
      "name": "hasRole",
      "outputs": [
        {
          "internalType": "bool",
          "name": "",
          "type": "bool"
        }
      ],
      "stateMutability": "view",
      "type": "function"
    },
    {
      "inputs": [
        {
          "internalType": "uint256",
          "name": "tokenId",
          "type": "uint256"
        },
        {
          "internalType": "enum LifecycleEvent.EventType",
          "name": "eventType",
          "type": "uint8"
        },
        {
          "internalType": "string",
          "name": "description",
          "type": "string"
        },
        {
          "internalType": "address",
          "name": "actor",
          "type": "address"
        },
        {
          "internalType": "string",
          "name": "proofHash",
          "type": "string"
        }
      ],
      "name": "logEvent",
      "outputs": [
        {
          "internalType": "uint256",
          "name": "",
          "type": "uint256"
        }
      ],
      "stateMutability": "nonpayable",
      "type": "function"
    },
    {
      "inputs": [],
      "name": "owner",
      "outputs": [
        {
          "internalType": "address",
          "name": "",
          "type": "address"
        }
      ],
      "stateMutability": "view",
      "type": "function"
    },
    {
      "inputs": [],
      "name": "productPassportAddress",
      "outputs": [
        {
          "internalType": "address",
          "name": "",
          "type": "address"
        }
      ],
      "stateMutability": "view",
      "type": "function"
    },
    {
      "inputs": [
        {
          "internalType": "bytes32",
          "name": "role",
          "type": "bytes32"
        },
        {
          "internalType": "address",
          "name": "account",
          "type": "address"
        }
      ],
      "name": "revokeRole",
      "outputs": [],
      "stateMutability": "nonpayable",
      "type": "function"
    },
    {
      "inputs": [
        {
          "internalType": "address",
          "name": "passportAddress",
          "type": "address"
        }
      ],
      "name": "setProductPassportAddress",
      "outputs": [],
      "stateMutability": "nonpayable",
      "type": "function"
    },
    {
      "inputs": [
        {
          "internalType": "address",
          "name": "newOwner",
          "type": "address"
        }
      ],
      "name": "transferOwnership",
      "outputs": [],
      "stateMutability": "nonpayable",
      "type": "function"
    },
    {
      "inputs": [
        {
          "internalType": "uint256",
          "name": "eventId",
          "type": "uint256"
        }
      ],
      "name": "verifyEvent",
      "outputs": [],
      "stateMutability": "nonpayable",
      "type": "function"
    }
  ],
  "bytecode": "0x608060405234801561001057600080fd5b50600180546001600160a01b03191633908117825560009081527f7d7ffb7a348e1c6a02869081a26547b49160dd3df72d1d75a570eb9b698292ec60205260409020805460ff1916821790556004556121548061006e6000396000f3fe608060405234801561001057600080fd5b506004361061012c5760003560e01c8063965288b0116100ad578063d547741f11610071578063d547741f146102fb578063d73f4efc1461030e578063d903708b14610321578063ec38d5a014610334578063f2fde38b1461035457600080fd5b8063965288b014610274578063ae622ff01461029b578063bf313778146102ae578063ca4a4ba5146102d5578063d2e24a11146102e857600080fd5b806353822c4d116100f457806353822c4d146101eb57806375b238fc146101fe5780638c73fbef146102135780638da5cb5b1461022657806391d148541461025157600080fd5b80630b791430146101315780630bffcaf5146101615780631ad87279146101965780631c2eaa9c146101b65780632f2ff15d146101d6575b600080fd5b61014461013f366004611b00565b610367565b604051610158989796959493929190611b97565b60405180910390f35b6101887f8d6164e59cd3d7769f046029450f52615b1942102ee92425070b9faf595f111e81565b604051908152602001610158565b6101a96101a4366004611b00565b6104d2565b6040516101589190611c90565b6101886101c4366004611b00565b60009081526002602052604090205490565b6101e96101e4366004611d0e565b61083a565b005b6101446101f9366004611d3a565b61093c565b6101886000805160206120ff83398151915281565b6101a9610221366004611b00565b61098e565b600154610239906001600160a01b031681565b6040516001600160a01b039091168152602001610158565b61026461025f366004611d0e565b610ced565b6040519015158152602001610158565b6101887feefb95e842a3287179d933b4460be539a1d5af11aa8b325bb45c5c8dc92de4ed81565b6101886102a9366004611dff565b610d16565b6101887f11d2c681bc9c10ed61f9a422c0dbaaddc4054ce58ec726aca73e7e4d31bcd15481565b600554610239906001600160a01b031681565b6101a96102f6366004611b00565b611198565b6101e9610309366004611d0e565b6113b2565b6101e961031c366004611e94565b6114a9565b6101e961032f366004611b00565b611555565b610347610342366004611b00565b6117ba565b6040516101589190611eb6565b6101e9610362366004611e94565b6119ab565b600360208190526000918252604090912080546001820154600283015493830180549294919360ff9092169261039c90611ec9565b80601f01602080910402602001604051908101604052809291908181526020018280546103c890611ec9565b80156104155780601f106103ea57610100808354040283529160200191610415565b820191906000526020600020905b8154815290600101906020018083116103f857829003601f168201915b505050600484015460058501805494956001600160a01b0390921694919350915061043f90611ec9565b80601f016020809104026020016040519081016040528092919081815260200182805461046b90611ec9565b80156104b85780601f1061048d576101008083540402835291602001916104b8565b820191906000526020600020905b81548152906001019060200180831161049b57829003601f168201915b50505050600683015460079093015491929160ff16905088565b6000818152600260209081526040808320805482518185028101850190935280835260609493849084015b828210156106d757838290600052602060002090600802016040518061010001604052908160008201548152602001600182015481526020016002820160009054906101000a900460ff16600781111561055957610559611b19565b600781111561056a5761056a611b19565b815260200160038201805461057e90611ec9565b80601f01602080910402602001604051908101604052809291908181526020018280546105aa90611ec9565b80156105f75780601f106105cc576101008083540402835291602001916105f7565b820191906000526020600020905b8154815290600101906020018083116105da57829003601f168201915b505050918352505060048201546001600160a01b0316602082015260058201805460409092019161062790611ec9565b80601f016020809104026020016040519081016040528092919081815260200182805461065390611ec9565b80156106a05780601f10610675576101008083540402835291602001916106a0565b820191906000526020600020905b81548152906001019060200180831161068357829003601f168201915b5050509183525050600682015460208083019190915260079092015460ff16151560409091015290825260019290920191016104fd565b5050505090506000805b82518110156107405760028382815181106106fe576106fe611f03565b602002602001015160400151600781111561071b5761071b611b19565b0361072e578161072a81611f19565b9250505b8061073881611f19565b9150506106e1565b508067ffffffffffffffff81111561075a5761075a611d5c565b60405190808252806020026020018201604052801561079357816020015b610780611a9f565b8152602001906001900390816107785790505b5092506000805b83518110156108315760028482815181106107b7576107b7611f03565b60200260200101516040015160078111156107d4576107d4611b19565b0361081f578381815181106107eb576107eb611f03565b602002602001015185838151811061080557610805611f03565b6020026020010181905250818061081b90611f19565b9250505b8061082981611f19565b91505061079a565b50505050919050565b6108526000805160206120ff83398151915233610ced565b6108775760405162461bcd60e51b815260040161086e90611f40565b60405180910390fd5b6108818282610ced565b156108e35760405162461bcd60e51b815260206004820152602c60248201527f416363657373436f6e74726f6c3a204163636f756e7420616c7265616479206860448201526b6173207468697320726f6c6560a01b606482015260840161086e565b6000828152602081815260408083206001600160a01b0385168085529252808320805460ff1916600117905551339285917f2f8788117e7eff1d82e926ec794901d17c78024a50270940304540a733656f0d9190a45050565b6002602052816000526040600020818154811061095857600080fd5b6000918252602090912060089091020180546001820154600283015460038401805493965091945060ff16929161039c90611ec9565b6000818152600260209081526040808320805482518185028101850190935280835260609493849084015b82821015610b9357838290600052602060002090600802016040518061010001604052908160008201548152602001600182015481526020016002820160009054906101000a900460ff166007811115610a1557610a15611b19565b6007811115610a2657610a26611b19565b8152602001600382018054610a3a90611ec9565b80601f0160208091040260200160405190810160405280929190818152602001828054610a6690611ec9565b8015610ab35780601f10610a8857610100808354040283529160200191610ab3565b820191906000526020600020905b815481529060010190602001808311610a9657829003601f168201915b505050918352505060048201546001600160a01b03166020820152600582018054604090920191610ae390611ec9565b80601f0160208091040260200160405190810160405280929190818152602001828054610b0f90611ec9565b8015610b5c5780601f10610b3157610100808354040283529160200191610b5c565b820191906000526020600020905b815481529060010190602001808311610b3f57829003601f168201915b5050509183525050600682015460208083019190915260079092015460ff16151560409091015290825260019290920191016109b9565b5050505090506000805b8251811015610bfc576004838281518110610bba57610bba611f03565b6020026020010151604001516007811115610bd757610bd7611b19565b03610bea5781610be681611f19565b9250505b80610bf481611f19565b915050610b9d565b508067ffffffffffffffff811115610c1657610c16611d5c565b604051908082528060200260200182016040528015610c4f57816020015b610c3c611a9f565b815260200190600190039081610c345790505b5092506000805b8351811015610831576004848281518110610c7357610c73611f03565b6020026020010151604001516007811115610c9057610c90611b19565b03610cdb57838181518110610ca757610ca7611f03565b6020026020010151858381518110610cc157610cc1611f03565b60200260200101819052508180610cd790611f19565b9250505b80610ce581611f19565b915050610c56565b6000918252602082815260408084206001600160a01b0393909316845291905290205460ff1690565b6000610d427feefb95e842a3287179d933b4460be539a1d5af11aa8b325bb45c5c8dc92de4ed33610ced565b80610d725750610d727f8d6164e59cd3d7769f046029450f52615b1942102ee92425070b9faf595f111e33610ced565b80610da25750610da27f11d2c681bc9c10ed61f9a422c0dbaaddc4054ce58ec726aca73e7e4d31bcd15433610ced565b610dff5760405162461bcd60e51b815260206004820152602860248201527f4c6966656379636c654576656e743a20496e73756666696369656e74207065726044820152676d697373696f6e7360c01b606482015260840161086e565b6000845111610e645760405162461bcd60e51b815260206004820152602b60248201527f4c6966656379636c654576656e743a204465736372697074696f6e2063616e6e60448201526a6f7420626520656d70747960a81b606482015260840161086e565b6001600160a01b038316610ecf5760405162461bcd60e51b815260206004820152602c60248201527f4c6966656379636c654576656e743a204163746f72206164647265737320636160448201526b6e6e6f74206265207a65726f60a01b606482015260840161086e565b6000825111610f335760405162461bcd60e51b815260206004820152602a60248201527f4c6966656379636c654576656e743a2050726f6f6620686173682063616e6e6f6044820152697420626520656d70747960b01b606482015260840161086e565b600480549081906000610f4583611f19565b91905055506000604051806101000160405280838152602001898152602001886007811115610f7657610f76611b19565b8152602001878152602001866001600160a01b031681526020018581526020014281526020016000151581525090508060036000848152602001908152602001600020600082015181600001556020820151816001015560408201518160020160006101000a81548160ff02191690836007811115610ff757610ff7611b19565b0217905550606082015160038201906110109082611fdf565b5060808201516004820180546001600160a01b0319166001600160a01b0390921691909117905560a0820151600582019061104b9082611fdf565b5060c0820151600682015560e0909101516007918201805491151560ff1992831617905560008a815260026020818152604080842080546001818101835591865294839020885160089096020194855591870151848301558601519183018054879694959394919316919084908111156110c7576110c7611b19565b0217905550606082015160038201906110e09082611fdf565b5060808201516004820180546001600160a01b0319166001600160a01b0390921691909117905560a0820151600582019061111b9082611fdf565b5060c0820151816006015560e08201518160070160006101000a81548160ff0219169083151502179055505050846001600160a01b031688837f84d1c5f9b9324a4250114796b67ef162ca5bfbd3c287c0bc8d08b4f55f50717c8a4260405161118592919061209f565b60405180910390a4509695505050505050565b606060026000838152602001908152602001600020805480602002602001604051908101604052809291908181526020016000905b828210156113a757838290600052602060002090600802016040518061010001604052908160008201548152602001600182015481526020016002820160009054906101000a900460ff16600781111561122957611229611b19565b600781111561123a5761123a611b19565b815260200160038201805461124e90611ec9565b80601f016020809104026020016040519081016040528092919081815260200182805461127a90611ec9565b80156112c75780601f1061129c576101008083540402835291602001916112c7565b820191906000526020600020905b8154815290600101906020018083116112aa57829003601f168201915b505050918352505060048201546001600160a01b031660208201526005820180546040909201916112f790611ec9565b80601f016020809104026020016040519081016040528092919081815260200182805461132390611ec9565b80156113705780601f1061134557610100808354040283529160200191611370565b820191906000526020600020905b81548152906001019060200180831161135357829003601f168201915b5050509183525050600682015460208083019190915260079092015460ff16151560409091015290825260019290920191016111cd565b505050509050919050565b6113ca6000805160206120ff83398151915233610ced565b6113e65760405162461bcd60e51b815260040161086e90611f40565b6113f08282610ced565b6114535760405162461bcd60e51b815260206004820152602e60248201527f416363657373436f6e74726f6c3a204163636f756e7420646f6573206e6f742060448201526d68617665207468697320726f6c6560901b606482015260840161086e565b6000828152602081815260408083206001600160a01b0385168085529252808320805460ff1916905551339285917ff6391f5c32d9c69d2a47ea670b442974b53935d1edc7fd64eb21e047a839171b9190a45050565b6114c16000805160206120ff83398151915233610ced565b6114dd5760405162461bcd60e51b815260040161086e90611f40565b6001600160a01b0381166115335760405162461bcd60e51b815260206004820152601f60248201527f4c6966656379636c654576656e743a20496e76616c6964206164647265737300604482015260640161086e565b600580546001600160a01b0319166001600160a01b0392909216919091179055565b61156d6000805160206120ff83398151915233610ced565b8061159d575061159d7f8d6164e59cd3d7769f046029450f52615b1942102ee92425070b9faf595f111e33610ced565b61160f5760405162461bcd60e51b815260206004820152603b60248201527f4c6966656379636c654576656e743a204f6e6c7920617574686f72697a65642060448201527f7665726966696572732063616e20766572696679206576656e74730000000000606482015260840161086e565b600081815260036020526040812054900361163c5760405162461bcd60e51b815260040161086e906120ba565b60008181526003602052604090206007015460ff16156116ad5760405162461bcd60e51b815260206004820152602660248201527f4c6966656379636c654576656e743a204576656e7420616c72656164792076656044820152651c9a599a595960d21b606482015260840161086e565b600081815260036020526040812060078101805460ff191660019081179091550154905b60008281526002602052604090205481101561177e57600082815260026020526040902080548491908390811061170a5761170a611f03565b9060005260206000209060080201600001540361176c5760008281526002602052604090208054600191908390811061174557611745611f03565b60009182526020909120600890910201600701805460ff191691151591909117905561177e565b8061177681611f19565b9150506116d1565b50604051428152339083907fda2aabe418167b899217f645f83413e0c283699d60363735f1196f7dfadda2cf9060200160405180910390a35050565b6117c2611a9f565b60008281526003602052604081205490036117ef5760405162461bcd60e51b815260040161086e906120ba565b600082815260036020908152604091829020825161010081018452815481526001820154928101929092526002810154919290919083019060ff16600781111561183b5761183b611b19565b600781111561184c5761184c611b19565b815260200160038201805461186090611ec9565b80601f016020809104026020016040519081016040528092919081815260200182805461188c90611ec9565b80156118d95780601f106118ae576101008083540402835291602001916118d9565b820191906000526020600020905b8154815290600101906020018083116118bc57829003601f168201915b505050918352505060048201546001600160a01b0316602082015260058201805460409092019161190990611ec9565b80601f016020809104026020016040519081016040528092919081815260200182805461193590611ec9565b80156119825780601f1061195757610100808354040283529160200191611982565b820191906000526020600020905b81548152906001019060200180831161196557829003601f168201915b50505091835250506006820154602082015260079091015460ff16151560409091015292915050565b6119c36000805160206120ff83398151915233610ced565b6119df5760405162461bcd60e51b815260040161086e90611f40565b6001600160a01b038116611a4d5760405162461bcd60e51b815260206004820152602f60248201527f416363657373436f6e74726f6c3a204e6577206f776e65722063616e6e6f742060448201526e6265207a65726f206164647265737360881b606482015260840161086e565b600180546001600160a01b038381166001600160a01b0319831681179093556040519116919082907f8be0079c531659141344cd1fd0a4f28419497f9722a3daafe3b4186f6b6457e090600090a35050565b604051806101000160405280600081526020016000815260200160006007811115611acc57611acc611b19565b81526020016060815260200160006001600160a01b0316815260200160608152602001600081526020016000151581525090565b600060208284031215611b1257600080fd5b5035919050565b634e487b7160e01b600052602160045260246000fd5b60088110611b4d57634e487b7160e01b600052602160045260246000fd5b9052565b6000815180845260005b81811015611b7757602081850181015186830182015201611b5b565b506000602082860101526020601f19601f83011685010191505092915050565b60006101008a8352896020840152611bb2604084018a611b2f565b806060840152611bc481840189611b51565b6001600160a01b038816608085015283810360a08501529050611be78187611b51565b60c0840195909552505090151560e0909101529695505050505050565b600061010082518452602083015160208501526040830151611c296040860182611b2f565b506060830151816060860152611c4182860182611b51565b91505060018060a01b03608084015116608085015260a083015184820360a0860152611c6d8282611b51565b91505060c083015160c085015260e0830151151560e08501528091505092915050565b6000602080830181845280855180835260408601915060408160051b870101925083870160005b82811015611ce557603f19888603018452611cd3858351611c04565b94509285019290850190600101611cb7565b5092979650505050505050565b80356001600160a01b0381168114611d0957600080fd5b919050565b60008060408385031215611d2157600080fd5b82359150611d3160208401611cf2565b90509250929050565b60008060408385031215611d4d57600080fd5b50508035926020909101359150565b634e487b7160e01b600052604160045260246000fd5b600082601f830112611d8357600080fd5b813567ffffffffffffffff80821115611d9e57611d9e611d5c565b604051601f8301601f19908116603f01168101908282118183101715611dc657611dc6611d5c565b81604052838152866020858801011115611ddf57600080fd5b836020870160208301376000602085830101528094505050505092915050565b600080600080600060a08688031215611e1757600080fd5b85359450602086013560088110611e2d57600080fd5b9350604086013567ffffffffffffffff80821115611e4a57600080fd5b611e5689838a01611d72565b9450611e6460608901611cf2565b93506080880135915080821115611e7a57600080fd5b50611e8788828901611d72565b9150509295509295909350565b600060208284031215611ea657600080fd5b611eaf82611cf2565b9392505050565b602081526000611eaf6020830184611c04565b600181811c90821680611edd57607f821691505b602082108103611efd57634e487b7160e01b600052602260045260246000fd5b50919050565b634e487b7160e01b600052603260045260246000fd5b600060018201611f3957634e487b7160e01b600052601160045260246000fd5b5060010190565b60208082526030908201527f416363657373436f6e74726f6c3a204f6e6c792061646d696e2063616e20636160408201526f3636103a3434b990333ab731ba34b7b760811b606082015260800190565b601f821115611fda57600081815260208120601f850160051c81016020861015611fb75750805b601f850160051c820191505b81811015611fd657828155600101611fc3565b5050505b505050565b815167ffffffffffffffff811115611ff957611ff9611d5c565b61200d816120078454611ec9565b84611f90565b602080601f831160018114612042576000841561202a5750858301515b600019600386901b1c1916600185901b178555611fd6565b600085815260208120601f198616915b8281101561207157888601518255948401946001909101908401612052565b508582101561208f5787850151600019600388901b60f8161c191681555b5050505050600190811b01905550565b604081016120ad8285611b2f565b8260208301529392505050565b60208082526024908201527f4c6966656379636c654576656e743a204576656e7420646f6573206e6f7420656040820152631e1a5cdd60e21b60608201526080019056fea49807205ce4d355092ef5a8a18f56e8913cf4a201fbe287825b095693c21775a2646970667358221220d32a5b41f5b1801d5acffce4f757a83853ed532d539fcd16c4a99884c0fc6c5564736f6c63430008140033",
  "linkReferences": {},
  "deployedLinkReferences": {}
}