{
  "_format": "hh-sol-artifact-1",
  "contractName": "ProductPassport",
  "sourceName": "contracts/ProductPassport.sol",
  "abi": [
    {
      "inputs": [],
      "stateMutability": "nonpayable",
      "type": "constructor"
    },
    {
      "anonymous": false,
      "inputs": [
        {
          "indexed": true,
          "internalType": "address",
          "name": "previousOwner",
          "type": "address"
        },
        {
          "indexed": true,
          "internalType": "address",
          "name": "newOwner",
          "type": "address"
        }
      ],
      "name": "OwnershipTransferred",
      "type": "event"
    },
    {
      "anonymous": false,
      "inputs": [
        {
          "indexed": true,
          "internalType": "uint256",
          "name": "tokenId",
          "type": "uint256"
        },
        {
          "indexed": true,
          "internalType": "address",
          "name": "from",
          "type": "address"
        },
        {
          "indexed": true,
          "internalType": "address",
          "name": "to",
          "type": "address"
        },
        {
          "indexed": false,
          "internalType": "uint256",
          "name": "timestamp",
          "type": "uint256"
        },
        {
          "indexed": false,
          "internalType": "string",
          "name": "reason",
          "type": "string"
        }
      ],
      "name": "OwnershipTransferred",
      "type": "event"
    },
    {
      "anonymous": false,
      "inputs": [
        {
          "indexed": true,
          "internalType": "uint256",
          "name": "tokenId",
          "type": "uint256"
        },
        {
          "indexed": true,
          "internalType": "address",
          "name": "manufacturer",
          "type": "address"
        },
        {
          "indexed": false,
          "internalType": "string",
          "name": "serialNumber",
          "type": "string"
        },
        {
          "indexed": false,
          "internalType": "uint256",
          "name": "timestamp",
          "type": "uint256"
        }
      ],
      "name": "ProductMinted",
      "type": "event"
    },
    {
      "anonymous": false,
      "inputs": [
        {
          "indexed": true,
          "internalType": "bytes32",
          "name": "role",
          "type": "bytes32"
        },
        {
          "indexed": true,
          "internalType": "address",
          "name": "account",
          "type": "address"
        },
        {
          "indexed": true,
          "internalType": "address",
          "name": "sender",
          "type": "address"
        }
      ],
      "name": "RoleGranted",
      "type": "event"
    },
    {
      "anonymous": false,
      "inputs": [
        {
          "indexed": true,
          "internalType": "bytes32",
          "name": "role",
          "type": "bytes32"
        },
        {
          "indexed": true,
          "internalType": "address",
          "name": "account",
          "type": "address"
        },
        {
          "indexed": true,
          "internalType": "address",
          "name": "sender",
          "type": "address"
        }
      ],
      "name": "RoleRevoked",
      "type": "event"
    },
    {
      "inputs": [],
      "name": "ADMIN_ROLE",
      "outputs": [
        {
          "internalType": "bytes32",
          "name": "",
          "type": "bytes32"
        }
      ],
      "stateMutability": "view",
      "type": "function"
    },
    {
      "inputs": [],
      "name": "MANUFACTURER_ROLE",
      "outputs": [
        {
          "internalType": "bytes32",
          "name": "",
          "type": "bytes32"
        }
      ],
      "stateMutability": "view",
      "type": "function"
    },
    {
      "inputs": [],
      "name": "RECYCLER_ROLE",
      "outputs": [
        {
          "internalType": "bytes32",
          "name": "",
          "type": "bytes32"
        }
      ],
      "stateMutability": "view",
      "type": "function"
    },
    {
      "inputs": [],
      "name": "VERIFIED_SERVICE_CENTER_ROLE",
      "outputs": [
        {
          "internalType": "bytes32",
          "name": "",
          "type": "bytes32"
        }
      ],
      "stateMutability": "view",
      "type": "function"
    },
    {
      "inputs": [
        {
          "internalType": "address",
          "name": "owner",
          "type": "address"
        }
      ],
      "name": "balanceOf",
      "outputs": [
        {
          "internalType": "uint256",
          "name": "",
          "type": "uint256"
        }
      ],
      "stateMutability": "view",
      "type": "function"
    },
    {
      "inputs": [
        {
          "internalType": "uint256",
          "name": "tokenId",
          "type": "uint256"
        }
      ],
      "name": "getProductInfo",
      "outputs": [
        {
          "components": [
            {
              "internalType": "uint256",
              "name": "tokenId",
              "type": "uint256"
            },
            {
              "internalType": "string",
              "name": "metadataURI",
              "type": "string"
            },
            {
              "internalType": "address",
              "name": "manufacturer",
              "type": "address"
            },
            {
              "internalType": "string",
              "name": "serialNumber",
              "type": "string"
            },
            {
              "internalType": "address",
              "name": "currentOwner",
              "type": "address"
            },
            {
              "internalType": "uint256",
              "name": "mintTimestamp",
              "type": "uint256"
            },
            {
              "internalType": "uint256",
              "name": "totalTransfers",
              "type": "uint256"
            },
            {
              "internalType": "bool",
              "name": "exists",
              "type": "bool"
            }
          ],
          "internalType": "struct ProductPassport.Product",
          "name": "product",
          "type": "tuple"
        },
        {
          "internalType": "uint256",
          "name": "transfers",
          "type": "uint256"
        },
        {
          "components": [
            {
              "internalType": "uint256",
              "name": "tokenId",
              "type": "uint256"
            },
            {
              "internalType": "address",
              "name": "from",
              "type": "address"
            },
            {
              "internalType": "address",
              "name": "to",
              "type": "address"
            },
            {
              "internalType": "uint256",
              "name": "timestamp",
              "type": "uint256"
            },
            {
              "internalType": "string",
              "name": "reason",
              "type": "string"
            }
          ],
          "internalType": "struct ProductPassport.TransferRecord[]",
          "name": "ownershipHistory",
          "type": "tuple[]"
        }
      ],
      "stateMutability": "view",
      "type": "function"
    },
    {
      "inputs": [
        {
          "internalType": "bytes32",
          "name": "role",
          "type": "bytes32"
        },
        {
          "internalType": "address",
          "name": "account",
          "type": "address"
        }
      ],
      "name": "grantRole",
      "outputs": [],
      "stateMutability": "nonpayable",
      "type": "function"
    },
    {
      "inputs": [
        {
          "internalType": "bytes32",
          "name": "role",
          "type": "bytes32"
        },
        {
          "internalType": "address",
          "name": "account",
          "type": "address"
        }
      ],
      "name": "hasRole",
      "outputs": [
        {
          "internalType": "bool",
          "name": "",
          "type": "bool"
        }
      ],
      "stateMutability": "view",
      "type": "function"
    },
    {
      "inputs": [
        {
          "internalType": "string",
          "name": "metadataURI",
          "type": "string"
        },
        {
          "internalType": "address",
          "name": "manufacturer",
          "type": "address"
        },
        {
          "internalType": "string",
          "name": "serialNumber",
          "type": "string"
        }
      ],
      "name": "mintProductNFT",
      "outputs": [
        {
          "internalType": "uint256",
          "name": "",
          "type": "uint256"
        }
      ],
      "stateMutability": "nonpayable",
      "type": "function"
    },
    {
      "inputs": [],
      "name": "owner",
      "outputs": [
        {
          "internalType": "address",
          "name": "",
          "type": "address"
        }
      ],
      "stateMutability": "view",
      "type": "function"
    },
    {
      "inputs": [
        {
          "internalType": "uint256",
          "name": "tokenId",
          "type": "uint256"
        }
      ],
      "name": "ownerOf",
      "outputs": [
        {
          "internalType": "address",
          "name": "",
          "type": "address"
        }
      ],
      "stateMutability": "view",
      "type": "function"
    },
    {
      "inputs": [
        {
          "internalType": "uint256",
          "name": "",
          "type": "uint256"
        }
      ],
      "name": "products",
      "outputs": [
        {
          "internalType": "uint256",
          "name": "tokenId",
          "type": "uint256"
        },
        {
          "internalType": "string",
          "name": "metadataURI",
          "type": "string"
        },
        {
          "internalType": "address",
          "name": "manufacturer",
          "type": "address"
        },
        {
          "internalType": "string",
          "name": "serialNumber",
          "type": "string"
        },
        {
          "internalType": "address",
          "name": "currentOwner",
          "type": "address"
        },
        {
          "internalType": "uint256",
          "name": "mintTimestamp",
          "type": "uint256"
        },
        {
          "internalType": "uint256",
          "name": "totalTransfers",
          "type": "uint256"
        },
        {
          "internalType": "bool",
          "name": "exists",
          "type": "bool"
        }
      ],
      "stateMutability": "view",
      "type": "function"
    },
    {
      "inputs": [
        {
          "internalType": "bytes32",
          "name": "role",
          "type": "bytes32"
        },
        {
          "internalType": "address",
          "name": "account",
          "type": "address"
        }
      ],
      "name": "revokeRole",
      "outputs": [],
      "stateMutability": "nonpayable",
      "type": "function"
    },
    {
      "inputs": [
        {
          "internalType": "address",
          "name": "owner",
          "type": "address"
        }
      ],
      "name": "tokensOfOwner",
      "outputs": [
        {
          "internalType": "uint256[]",
          "name": "",
          "type": "uint256[]"
        }
      ],
      "stateMutability": "view",
      "type": "function"
    },
    {
      "inputs": [],
      "name": "totalSupply",
      "outputs": [
        {
          "internalType": "uint256",
          "name": "",
          "type": "uint256"
        }
      ],
      "stateMutability": "view",
      "type": "function"
    },
    {
      "inputs": [
        {
          "internalType": "uint256",
          "name": "",
          "type": "uint256"
        },
        {
          "internalType": "uint256",
          "name": "",
          "type": "uint256"
        }
      ],
      "name": "transferHistory",
      "outputs": [
        {
          "internalType": "uint256",
          "name": "tokenId",
          "type": "uint256"
        },
        {
          "internalType": "address",
          "name": "from",
          "type": "address"
        },
        {
          "internalType": "address",
          "name": "to",
          "type": "address"
        },
        {
          "internalType": "uint256",
          "name": "timestamp",
          "type": "uint256"
        },
        {
          "internalType": "string",
          "name": "reason",
          "type": "string"
        }
      ],
      "stateMutability": "view",
      "type": "function"
    },
    {
      "inputs": [
        {
          "internalType": "uint256",
          "name": "tokenId",
          "type": "uint256"
        },
        {
          "internalType": "address",
          "name": "newOwner",
          "type": "address"
        },
        {
          "internalType": "string",
          "name": "reason",
          "type": "string"
        }
      ],
      "name": "transferOwnership",
      "outputs": [],
      "stateMutability": "nonpayable",
      "type": "function"
    },
    {
      "inputs": [
        {
          "internalType": "address",
          "name": "newOwner",
          "type": "address"
        }
      ],
      "name": "transferOwnership",
      "outputs": [],
      "stateMutability": "nonpayable",
      "type": "function"
    }
  ],
  "bytecode": "0x608060405234801561001057600080fd5b50600180546001600160a01b03191633908117825560009081527f7d7ffb7a348e1c6a02869081a26547b49160dd3df72d1d75a570eb9b698292ec60205260409020805460ff191682179055600455611cd38061006e6000396000f3fe608060405234801561001057600080fd5b50600436106101165760003560e01c80638462151c116100a2578063bb48ca0a11610071578063bb48ca0a1461029e578063bf313778146102b1578063d547741f146102d8578063dedaff54146102eb578063f2fde38b1461030f57600080fd5b80638462151c146102215780638da5cb5b1461024157806391d1485414610254578063965288b01461027757600080fd5b806370a08231116100e957806370a082311461019d57806371625641146101b057806375b238fc146101c357806379a85e6c146101d85780637acc0b20146101fa57600080fd5b80630bffcaf51461011b57806318160ddd146101555780632f2ff15d1461015d5780636352211e14610172575b600080fd5b6101427f8d6164e59cd3d7769f046029450f52615b1942102ee92425070b9faf595f111e81565b6040519081526020015b60405180910390f35b610142610322565b61017061016b366004611520565b610338565b005b61018561018036600461154c565b61043a565b6040516001600160a01b03909116815260200161014c565b6101426101ab366004611565565b61048e565b6101706101be36600461162a565b6104d2565b610142600080516020611c7e83398151915281565b6101eb6101e636600461154c565b61084c565b60405161014c9392919061175e565b61020d61020836600461154c565b610bbb565b60405161014c98979695949392919061181a565b61023461022f366004611565565b610d29565b60405161014c9190611882565b600154610185906001600160a01b031681565b610267610262366004611520565b610dbb565b604051901515815260200161014c565b6101427feefb95e842a3287179d933b4460be539a1d5af11aa8b325bb45c5c8dc92de4ed81565b6101426102ac3660046118c6565b610de6565b6101427f11d2c681bc9c10ed61f9a422c0dbaaddc4054ce58ec726aca73e7e4d31bcd15481565b6101706102e6366004611520565b61115f565b6102fe6102f9366004611930565b611256565b60405161014c959493929190611952565b61017061031d366004611565565b61133c565b6000600160045461033391906119ac565b905090565b610350600080516020611c7e83398151915233610dbb565b6103755760405162461bcd60e51b815260040161036c906119bf565b60405180910390fd5b61037f8282610dbb565b156103e15760405162461bcd60e51b815260206004820152602c60248201527f416363657373436f6e74726f6c3a204163636f756e7420616c7265616479206860448201526b6173207468697320726f6c6560a01b606482015260840161036c565b6000828152602081815260408083206001600160a01b0385168085529252808320805460ff1916600117905551339285917f2f8788117e7eff1d82e926ec794901d17c78024a50270940304540a733656f0d9190a45050565b600081815260026020526040812060070154829060ff1661046d5760405162461bcd60e51b815260040161036c90611a0f565b6000838152600560205260409020546001600160a01b031691505b50919050565b60006001600160a01b0382166104b65760405162461bcd60e51b815260040161036c90611a54565b506001600160a01b031660009081526007602052604090205490565b600083815260026020526040902060070154839060ff166105055760405162461bcd60e51b815260040161036c90611a0f565b6001600160a01b0383166105745760405162461bcd60e51b815260206004820152603060248201527f50726f6475637450617373706f72743a2043616e6e6f74207472616e7366657260448201526f20746f207a65726f206164647265737360801b606482015260840161036c565b6000848152600560205260409020546001600160a01b031633146105ef5760405162461bcd60e51b815260206004820152602c60248201527f50726f6475637450617373706f72743a204e6f7420746865206f776e6572206f60448201526b33103a3434b9903a37b5b2b760a11b606482015260840161036c565b6000848152600560205260409020546001600160a01b03908116908416036106735760405162461bcd60e51b815260206004820152603160248201527f50726f6475637450617373706f72743a2043616e6e6f74207472616e73666572604482015270103a379031bab93932b73a1037bbb732b960791b606482015260840161036c565b600084815260056020908152604080832080546001600160a01b03198082166001600160a01b038a811691821790945560029095529285206004810180549094169094179092556006909201805492909116926106cf83611a9b565b90915550506001600160a01b03811660009081526007602052604081208054916106f883611ab4565b90915550506001600160a01b038416600090815260076020526040812080549161072183611a9b565b91905055506107308186611430565b6001600160a01b038085166000818152600660209081526040808320805460018181018355918552838520018b90558a84526003808452828520835160a0810185528d81528989168187019081529481019788524260608201908152608082018d815283548087018555938952969097208151600590930201918255935192810180549389166001600160a01b0319948516179055955160028701805491909816921691909117909555915193830193909355915160048201906107f49082611b4e565b505050836001600160a01b0316816001600160a01b0316867ff4d95fc8796a54b02be0f62c2ba539fdb5bc830f9178ca1534e4d35af6e8d71e428760405161083d929190611c0e565b60405180910390a45050505050565b6108a8604051806101000160405280600081526020016060815260200160006001600160a01b031681526020016060815260200160006001600160a01b0316815260200160008152602001600081526020016000151581525090565b600082815260026020526040812060070154606090849060ff166108de5760405162461bcd60e51b815260040161036c90611a0f565b60026000868152602001908152602001600020604051806101000160405290816000820154815260200160018201805461091790611acb565b80601f016020809104026020016040519081016040528092919081815260200182805461094390611acb565b80156109905780601f1061096557610100808354040283529160200191610990565b820191906000526020600020905b81548152906001019060200180831161097357829003601f168201915b505050918352505060028201546001600160a01b031660208201526003820180546040909201916109c090611acb565b80601f01602080910402602001604051908101604052809291908181526020018280546109ec90611acb565b8015610a395780601f10610a0e57610100808354040283529160200191610a39565b820191906000526020600020905b815481529060010190602001808311610a1c57829003601f168201915b505050918352505060048201546001600160a01b031660208083019190915260058301546040808401919091526006840154606084015260079093015460ff1615156080909201919091526000888152600382528281208054845181850281018501909552808552949850939650919291869184015b82821015610bad5760008481526020908190206040805160a081018252600586029092018054835260018101546001600160a01b039081169484019490945260028101549093169082015260038201546060820152600482018054919291608084019190610b1c90611acb565b80601f0160208091040260200160405190810160405280929190818152602001828054610b4890611acb565b8015610b955780601f10610b6a57610100808354040283529160200191610b95565b820191906000526020600020905b815481529060010190602001808311610b7857829003601f168201915b50505050508152505081526020019060010190610aaf565b505050509150509193909250565b60026020526000908152604090208054600182018054919291610bdd90611acb565b80601f0160208091040260200160405190810160405280929190818152602001828054610c0990611acb565b8015610c565780601f10610c2b57610100808354040283529160200191610c56565b820191906000526020600020905b815481529060010190602001808311610c3957829003601f168201915b505050600284015460038501805494956001600160a01b03909216949193509150610c8090611acb565b80601f0160208091040260200160405190810160405280929190818152602001828054610cac90611acb565b8015610cf95780601f10610cce57610100808354040283529160200191610cf9565b820191906000526020600020905b815481529060010190602001808311610cdc57829003601f168201915b5050505060048301546005840154600685015460079095015493946001600160a01b039092169390925060ff1688565b60606001600160a01b038216610d515760405162461bcd60e51b815260040161036c90611a54565b6001600160a01b03821660009081526006602090815260409182902080548351818402810184019094528084529091830182828015610daf57602002820191906000526020600020905b815481526020019060010190808311610d9b575b50505050509050919050565b6000828152602081815260408083206001600160a01b038516845290915290205460ff165b92915050565b6000610e127feefb95e842a3287179d933b4460be539a1d5af11aa8b325bb45c5c8dc92de4ed33610dbb565b610e7b5760405162461bcd60e51b815260206004820152603460248201527f50726f6475637450617373706f72743a204f6e6c79206d616e7566616374757260448201527365722063616e206d696e742070726f647563747360601b606482015260840161036c565b6000845111610eda5760405162461bcd60e51b815260206004820152602560248201527f50726f6475637450617373706f72743a20496e76616c6964206d657461646174604482015264612055524960d81b606482015260840161036c565b6001600160a01b038316610f465760405162461bcd60e51b815260206004820152602d60248201527f50726f6475637450617373706f72743a20496e76616c6964206d616e7566616360448201526c7475726572206164647265737360981b606482015260840161036c565b6000825111610fa65760405162461bcd60e51b815260206004820152602660248201527f50726f6475637450617373706f72743a20496e76616c69642073657269616c20604482015265373ab6b132b960d11b606482015260840161036c565b600480549081906000610fb883611a9b565b9091555050604080516101008101825282815260208082018881526001600160a01b0388168385018190526060840188905260808401524260a0840152600060c08401819052600160e085018190528682526002909352939093208251815592519192919082019061102a9082611b4e565b5060408201516002820180546001600160a01b0319166001600160a01b03909216919091179055606082015160038201906110659082611b4e565b5060808201516004820180546001600160a01b03199081166001600160a01b039384161790915560a084015160058085019190915560c085015160068086019190915560e0909501516007948501805460ff19169115159190911790556000868152602091825260408082208054909416948b16948517909355838152948152818520805460018101825590865281862001869055918452919052812080549161110e83611a9b565b9190505550836001600160a01b0316817ff0271eb11f03e25fdec58462454954357854d178b75039ed68f840d948e8cc87854260405161114f929190611c2f565b60405180910390a3949350505050565b611177600080516020611c7e83398151915233610dbb565b6111935760405162461bcd60e51b815260040161036c906119bf565b61119d8282610dbb565b6112005760405162461bcd60e51b815260206004820152602e60248201527f416363657373436f6e74726f6c3a204163636f756e7420646f6573206e6f742060448201526d68617665207468697320726f6c6560901b606482015260840161036c565b6000828152602081815260408083206001600160a01b0385168085529252808320805460ff1916905551339285917ff6391f5c32d9c69d2a47ea670b442974b53935d1edc7fd64eb21e047a839171b9190a45050565b6003602052816000526040600020818154811061127257600080fd5b6000918252602090912060059091020180546001820154600283015460038401546004850180549497506001600160a01b039384169650919092169391926112b990611acb565b80601f01602080910402602001604051908101604052809291908181526020018280546112e590611acb565b80156113325780601f1061130757610100808354040283529160200191611332565b820191906000526020600020905b81548152906001019060200180831161131557829003601f168201915b5050505050905085565b611354600080516020611c7e83398151915233610dbb565b6113705760405162461bcd60e51b815260040161036c906119bf565b6001600160a01b0381166113de5760405162461bcd60e51b815260206004820152602f60248201527f416363657373436f6e74726f6c3a204e6577206f776e65722063616e6e6f742060448201526e6265207a65726f206164647265737360881b606482015260840161036c565b600180546001600160a01b038381166001600160a01b0319831681179093556040519116919082907f8be0079c531659141344cd1fd0a4f28419497f9722a3daafe3b4186f6b6457e090600090a35050565b6001600160a01b0382166000908152600660205260408120905b81548110156114fe578282828154811061146657611466611c51565b9060005260206000200154036114ec5781548290611486906001906119ac565b8154811061149657611496611c51565b90600052602060002001548282815481106114b3576114b3611c51565b9060005260206000200181905550818054806114d1576114d1611c67565b600190038181906000526020600020016000905590556114fe565b806114f681611a9b565b91505061144a565b50505050565b80356001600160a01b038116811461151b57600080fd5b919050565b6000806040838503121561153357600080fd5b8235915061154360208401611504565b90509250929050565b60006020828403121561155e57600080fd5b5035919050565b60006020828403121561157757600080fd5b61158082611504565b9392505050565b634e487b7160e01b600052604160045260246000fd5b600082601f8301126115ae57600080fd5b813567ffffffffffffffff808211156115c9576115c9611587565b604051601f8301601f19908116603f011681019082821181831017156115f1576115f1611587565b8160405283815286602085880101111561160a57600080fd5b836020870160208301376000602085830101528094505050505092915050565b60008060006060848603121561163f57600080fd5b8335925061164f60208501611504565b9150604084013567ffffffffffffffff81111561166b57600080fd5b6116778682870161159d565b9150509250925092565b6000815180845260005b818110156116a75760208185018101518683018201520161168b565b506000602082860101526020601f19601f83011685010191505092915050565b600081518084526020808501808196508360051b8101915082860160005b85811015611751578284038952815180518552858101516001600160a01b0390811687870152604080830151909116908601526060808201519086015260809081015160a09186018290529061173d81870183611681565b9a87019a95505050908401906001016116e5565b5091979650505050505050565b606081528351606082015260006020850151610100806080850152611787610160850183611681565b60408801516001600160a01b031660a08601526060880151858203605f190160c08701529092506117b88382611681565b92505060808701516117d560e08601826001600160a01b03169052565b5060a08701519084015260c086015161012084015260e0860151151561014084015260208301859052828103604084015261181081856116c7565b9695505050505050565b60006101008a83528060208401526118348184018b611681565b6001600160a01b038a811660408601528482036060860152909150611859828a611681565b97166080840152505060a081019390935260c0830191909152151560e090910152949350505050565b6020808252825182820181905260009190848201906040850190845b818110156118ba5783518352928401929184019160010161189e565b50909695505050505050565b6000806000606084860312156118db57600080fd5b833567ffffffffffffffff808211156118f357600080fd5b6118ff8783880161159d565b945061190d60208701611504565b9350604086013591508082111561192357600080fd5b506116778682870161159d565b6000806040838503121561194357600080fd5b50508035926020909101359150565b8581526001600160a01b038581166020830152841660408201526060810183905260a06080820181905260009061198b90830184611681565b979650505050505050565b634e487b7160e01b600052601160045260246000fd5b81810381811115610de057610de0611996565b60208082526030908201527f416363657373436f6e74726f6c3a204f6e6c792061646d696e2063616e20636160408201526f3636103a3434b990333ab731ba34b7b760811b606082015260800190565b60208082526025908201527f50726f6475637450617373706f72743a20546f6b656e20646f6573206e6f7420604082015264195e1a5cdd60da1b606082015260800190565b60208082526027908201527f50726f6475637450617373706f72743a205a65726f2061646472657373206e6f6040820152661d081d985b1a5960ca1b606082015260800190565b600060018201611aad57611aad611996565b5060010190565b600081611ac357611ac3611996565b506000190190565b600181811c90821680611adf57607f821691505b60208210810361048857634e487b7160e01b600052602260045260246000fd5b601f821115611b4957600081815260208120601f850160051c81016020861015611b265750805b601f850160051c820191505b81811015611b4557828155600101611b32565b5050505b505050565b815167ffffffffffffffff811115611b6857611b68611587565b611b7c81611b768454611acb565b84611aff565b602080601f831160018114611bb15760008415611b995750858301515b600019600386901b1c1916600185901b178555611b45565b600085815260208120601f198616915b82811015611be057888601518255948401946001909101908401611bc1565b5085821015611bfe5787850151600019600388901b60f8161c191681555b5050505050600190811b01905550565b828152604060208201526000611c276040830184611681565b949350505050565b604081526000611c426040830185611681565b90508260208301529392505050565b634e487b7160e01b600052603260045260246000fd5b634e487b7160e01b600052603160045260246000fdfea49807205ce4d355092ef5a8a18f56e8913cf4a201fbe287825b095693c21775a2646970667358221220978f8d124ba1c6a3113ff65ba4f081ff6983ef11ffbcce8c5ec2f6017a58f96064736f6c63430008140033",
  "linkReferences": {},
  "deployedLinkReferences": {}
}